:100000000C9446000C9450000C9450000C9450003A
:100010000C9450000C9450000C9450000C94500020
:100020000C9450000C9450000C9450000C94500010
:100030000C9450000C9450000C9450000C94500000
:100040000C9450000C9450000C9450000C945000F0
:100050000C9450000C9450000C9450000C945000E0
:100060000C9450000C9450000C9450000C945000D0
:100070000C9450000C9450000C9450000C945000C0
:100080000C9450000C9450000C94500011241FBE8E
:10009000CFEFD0E4DEBFCDBF0E948B020C943005C1
:1000A0000C94000084EA8093BC008091BC0087FF20
:1000B000FCCF8091B900887F089584E98093BC00CB
:1000C0008091BC0084FDFCCF08958093BB0084E840
:1000D0008093BC008091BC0087FFFCCF8091B90069
:1000E000887F089584E88093BC008091BC0087FFDE
:1000F000FCCF8091BB000895CF93DF93D82FC62FFC
:100100000E945200883099F480EC0E94650088318A
:1001100081F48D2F0E946500883269F48C2F0E9433
:100120006500883251F40E945D0080E007C081E0E4
:1001300005C082E003C083E001C084E0DF91CF917D
:1001400008951F93CF93DF93182FEB010E94520065
:100150008830D1F480EC0E9465008831B9F4812F99
:100160000E9465008832A1F40E945200803191F40F
:1001700081EC0E946500803479F40E9472008883CB
:100180000E945D0080E009C081E007C082E005C0F8
:1001900083E003C084E001C085E0DF91CF911F912F
:1001A00008958CE58093B8001092B9008FEF80938A
:1001B000BB0008954F925F926F927F928F929F92B1
:1001C000AF92BF92CF92DF92EF92FF920F931F9365
:1001D000CF93DF93C82FD62F49015A0167017801C9
:1001E000CA01B9010E9435042B013C01C701B601C7
:1001F0000E9435049B01AC01C301B2010E9494032B
:1002000020E030E040E053E40E94C3040E94060472
:100210009B01AC014D2E512C612C712C87E0440CBC
:10022000551C661C771C8A95D1F782E0581A610824
:100230007108420E531E641E751E97E0880C991CAF
:10024000AA1CBB1C9A95D1F7C701B6010E944803AE
:10025000861A970AA80AB90A6D2D8C2F0E947C0075
:100260006C2D81E08C0F0E947C00D301C201882795
:100270009927A370BB27BD018827992782E08C0F9F
:100280000E947C00652D83E08C0F0E947C00642D11
:1002900084E08C0F0E947C00D501C4018827992737
:1002A000AF70BB27CC24DD242FE0E222FF243CE00A
:1002B000F694E794D794C7943A95D1F76A2F6C29AE
:1002C00085E08C0F0E947C00692D86E08C0F0E94D7
:1002D0007C00682D87E08C0FDF91CF911F910F91EB
:1002E000FF90EF90DF90CF90BF90AF909F908F9056
:1002F0007F906F905F904F900C947C00CF92DF9234
:10030000EF92FF921F93CF93DF931F92CDB7DEB78B
:10031000182F87E0440F551F661F771F8A95D1F766
:100320006A017B0182E0D81AE108F10860E0812FC0
:1003300029830E947C0061E081E0810F0E947C00A3
:10034000D701C60188279927A370BB272981622F6F
:100350006A2B82E0810F0E947C006D2D83E0810F6B
:100360000E947C006C2D84E0810F0E947C0060E084
:1003700085E0810F0E947C0060E086E0810F0E9492
:100380007C0060E087E0810F0F90DF91CF911F919B
:10039000FF90EF90DF90CF900C947C0060E80C947D
:1003A0007C008F929F92AF92BF92CF92DF92EF929A
:1003B000FF920F931F936B017C0160E079EE84EA5A
:1003C00095E3A70196010E94580349015A0120FFB5
:1003D00005C081E0881A9108A108B108A50194011F
:1003E000C701B6010E94480320E438E74DE751E019
:1003F0000E945803D22E0E94350420EF3FEF4FE7B2
:1004000059E40E94C30420E23CEB4EEB5BE40E9403
:1004100094030E9406049B01AC01EE24EA94FE2C96
:100420000FE010E06D2D8AE10E94DA0020E0B501B6
:10043000A4018AE20E947E0160EA81EB0E947C00B6
:100440006FE480E11F910F91FF90EF90DF90CF90CC
:10045000BF90AF909F908F900C947C008F929F9252
:10046000AF92BF92CF92DF92EF92FF920F931F93C2
:100470006B017C0160E079EE84EA95E3A7019601C7
:100480000E94580349015A0120FF05C081E0881AE3
:100490009108A108B108A5019401C701B6010E9405
:1004A000480320E438E74DE751E00E945803D22E7C
:1004B0000E94350420EF3FEF4FE759E40E94C30448
:1004C00020E23CEB4EEB5BE40E9494030E940604A6
:1004D0009B01AC01EE24EA94FE2C0FE010E06D2DA0
:1004E00082E20E94DA0020E0B501A4018AE30E94C2
:1004F0007E0160EA81EB0E947C006FE682E11F9141
:100500000F91FF90EF90DF90CF90BF90AF909F90B2
:100510008F900C947C000E94D10060E874E88EE11A
:1005200090E00E94D10160EC76EC8DE290E00E94B8
:100530002E022FE382E49FE0215080409040E1F7BB
:1005400000C0000060E079E08DE390E00E94D101FE
:1005500060E47BE48CE490E00E942E022FE382E4CE
:100560009FE0215080409040E1F700C0000060E82B
:100570007DE88BE590E00E94D10160EC7FEC8AE69B
:1005800090E00E942E022FE382E49FE02150804001
:100590009040E1F700C0000060E072E18AE790E07F
:1005A0000E94D10160E474E589E890E00E942E0287
:1005B0002FE382E49FE0215080409040E1F700C0AB
:1005C000000060E876E988E990E00E94D10160ECE3
:1005D00078ED87EA90E00E942E022FE382E49FE00C
:1005E000215080409040E1F700C0000060E87FE9C2
:1005F00085ED90E00E94D10160E074E284EF90E02C
:100600000E942E022FE382E49FE021508040904020
:10061000E1F700C0000060E878EA82E191E00E9422
:10062000D1012FE382E49FE0215080409040E1F728
:1006300000C0000060E076E38EE691E00E94D10108
:100640002FE382E49FE0215080409040E1F700C01A
:10065000000060EC7CEF8BE991E00E94D1012FE378
:1006600082E49FE0215080409040E1F700C000000C
:1006700060E873EC89EC91E00E94D1012FE382E401
:100680009FE0215080409040E1F700C0000045CF3E
:10069000DB018F939F930E947A03BF91AF91A29F3A
:1006A000800D911DA39F900DB29F900D1124089570
:1006B000A1E21A2EAA1BBB1BFD010DC0AA1FBB1F66
:1006C000EE1FFF1FA217B307E407F50720F0A21BD8
:1006D000B30BE40BF50B661F771F881F991F1A9445
:1006E00069F760957095809590959B01AC01BD016F
:1006F000CF0108950E948503A59F900DB49F900D92
:10070000A49F800D911D11240895A29FB001B39F55
:10071000C001A39F700D811D1124911DB29F700D0A
:10072000811D1124911D08950E94A8030C94890431
:100730000E94820458F00E947B0440F029F45F3F3D
:1007400029F00C94720451110C94BD040C9478049B
:100750000E949A0468F39923B1F3552391F3951BF2
:10076000550BBB27AA2762177307840738F09F5FD2
:100770005F4F220F331F441FAA1FA9F335D00E2E3F
:100780003AF0E0E832D091505040E695001CCAF7AC
:100790002BD0FE2F29D0660F771F881FBB1F26176F
:1007A00037074807AB07B0E809F0BB0B802DBF0146
:1007B000FF2793585F4F3AF09E3F510578F00C9415
:1007C00072040C94BD045F3FE4F3983ED4F3869525
:1007D00077956795B795F7959F5FC9F7880F911D36
:1007E0009695879597F90895E1E0660F771F881F22
:1007F000BB1F621773078407BA0720F0621B730BD5
:10080000840BBA0BEE1F88F7E09508950E94A204AE
:1008100088F09F5798F0B92F9927B751B0F0E1F0C1
:10082000660F771F881F991F1AF0BA95C9F714C071
:10083000B13091F00E94BC04B1E008950C94BC0466
:10084000672F782F8827B85F39F0B93FCCF38695AA
:1008500077956795B395D9F73EF490958095709507
:1008600061957F4F8F4F9F4F0895E89409C097FB84
:100870003EF490958095709561957F4F8F4F9F4F77
:100880009923A9F0F92F96E9BB279395F6958795BB
:1008900077956795B795F111F8CFFAF4BB0F11F47E
:1008A00060FF1BC06F5F7F4F8F4F9F4F16C0882325
:1008B00011F096E911C0772321F09EE8872F762F5B
:1008C00005C0662371F096E8862F70E060E02AF09C
:1008D0009A95660F771F881FDAF7880F9695879588
:1008E00097F9089597F99F6780E870E060E00895B0
:1008F0009FEF80EC089500240A9416161706180638
:100900000906089500240A94121613061406050613
:100910000895092E0394000C11F4882352F0BB0FA4
:1009200040F4BF2B11F460FF04C06F5F7F4F8F4F07
:100930009F4F089557FD9058440F551F59F05F3F42
:1009400071F04795880F97FB991F61F09F3F79F0F1
:1009500087950895121613061406551FF2CF469573
:10096000F1DF08C0161617061806991FF1CF8695F5
:100970007105610508940895E894BB2766277727D9
:10098000CB0197F908950E94D6040C9489040E9423
:100990007B0438F00E94820420F0952311F00C941F
:1009A00072040C94780411240C94BD040E949A04DF
:1009B00070F3959FC1F3950F50E0551F629FF001B2
:1009C000729FBB27F00DB11D639FAA27F00DB11DCB
:1009D000AA1F649F6627B00DA11D661F829F222754
:1009E000B00DA11D621F739FB00DA11D621F839FDB
:1009F000A00D611D221F749F3327A00D611D231FB1
:100A0000849F600D211D822F762F6A2F11249F57FE
:100A100050409AF0F1F088234AF0EE0FFF1FBB1F01
:100A2000661F771F881F91505040A9F79E3F5105C0
:100A300080F00C9472040C94BD045F3FE4F3983E84
:100A4000D4F3869577956795B795F795E7959F5F6A
:100A5000C1F7FE2B880F911D9695879597F90895FC
:040A6000F894FFCF38
:00000001FF
